{
  "contractName": "Company",
  "abi": [
    {
      "constant": true,
      "inputs": [],
      "name": "owner",
      "outputs": [
        {
          "name": "",
          "type": "address"
        }
      ],
      "payable": false,
      "stateMutability": "view",
      "type": "function"
    },
    {
      "constant": true,
      "inputs": [],
      "name": "employee",
      "outputs": [
        {
          "name": "",
          "type": "address"
        }
      ],
      "payable": false,
      "stateMutability": "view",
      "type": "function"
    },
    {
      "constant": false,
      "inputs": [
        {
          "name": "newOwner",
          "type": "address"
        }
      ],
      "name": "transferOwnership",
      "outputs": [],
      "payable": false,
      "stateMutability": "nonpayable",
      "type": "function"
    },
    {
      "inputs": [],
      "payable": true,
      "stateMutability": "payable",
      "type": "constructor"
    },
    {
      "anonymous": false,
      "inputs": [
        {
          "indexed": false,
          "name": "_owner",
          "type": "address"
        },
        {
          "indexed": false,
          "name": "number",
          "type": "bytes32"
        }
      ],
      "name": "Registered",
      "type": "event"
    },
    {
      "anonymous": false,
      "inputs": [
        {
          "indexed": true,
          "name": "previousOwner",
          "type": "address"
        },
        {
          "indexed": true,
          "name": "newOwner",
          "type": "address"
        }
      ],
      "name": "OwnershipTransferred",
      "type": "event"
    },
    {
      "constant": true,
      "inputs": [],
      "name": "test",
      "outputs": [
        {
          "name": "",
          "type": "string"
        }
      ],
      "payable": false,
      "stateMutability": "pure",
      "type": "function"
    },
    {
      "constant": false,
      "inputs": [
        {
          "name": "_number",
          "type": "bytes32"
        },
        {
          "name": "_name",
          "type": "string"
        },
        {
          "name": "_companyType",
          "type": "uint256"
        }
      ],
      "name": "RegisterCompany",
      "outputs": [
        {
          "name": "success",
          "type": "bool"
        }
      ],
      "payable": false,
      "stateMutability": "nonpayable",
      "type": "function"
    },
    {
      "constant": true,
      "inputs": [
        {
          "name": "_number",
          "type": "bytes32"
        }
      ],
      "name": "lookupCompany",
      "outputs": [
        {
          "name": "",
          "type": "bytes32"
        },
        {
          "name": "",
          "type": "string"
        },
        {
          "name": "",
          "type": "uint256"
        },
        {
          "name": "",
          "type": "uint256"
        }
      ],
      "payable": false,
      "stateMutability": "view",
      "type": "function"
    },
    {
      "constant": false,
      "inputs": [],
      "name": "removeContract",
      "outputs": [],
      "payable": false,
      "stateMutability": "nonpayable",
      "type": "function"
    },
    {
      "constant": false,
      "inputs": [
        {
          "name": "uportIdentityAddress",
          "type": "address"
        }
      ],
      "name": "registerEmployee",
      "outputs": [],
      "payable": false,
      "stateMutability": "nonpayable",
      "type": "function"
    }
  ],
  "bytecode": "0x606060405260008054600160a060020a033316600160a060020a031991821681179092556001805490911690911790556109248061003e6000396000f30060606040526004361061008d5763ffffffff7c01000000000000000000000000000000000000000000000000000000006000350416635786a55281146100925780638251d963146100b3578063844da7fb146101575780638da5cb5b146101c3578063a0a1a7d7146101f2578063f2fde38b14610205578063f8a8fd6d14610224578063fe389e09146102ae575b600080fd5b341561009d57600080fd5b6100b1600160a060020a03600435166102c1565b005b34156100be57600080fd5b6100c960043561030b565b604051848152604081018390526060810182905260806020820181815290820185818151815260200191508051906020019080838360005b83811015610119578082015183820152602001610101565b50505050905090810190601f1680156101465780820380516001836020036101000a031916815260200191505b509550505050505060405180910390f35b341561016257600080fd5b6101af600480359060446024803590810190830135806020601f82018190048102016040519081016040528181529291906020840183838082843750949650509335935061052592505050565b604051901515815260200160405180910390f35b34156101ce57600080fd5b6101d66106b6565b604051600160a060020a03909116815260200160405180910390f35b34156101fd57600080fd5b6101d66106c5565b341561021057600080fd5b6100b1600160a060020a03600435166106d4565b341561022f57600080fd5b61023761076f565b60405160208082528190810183818151815260200191508051906020019080838360005b8381101561027357808201518382015260200161025b565b50505050905090810190601f1680156102a05780820380516001836020036101000a031916815260200191505b509250505060405180910390f35b34156102b957600080fd5b6100b16107b1565b60005433600160a060020a039081169116146102dc57600080fd5b6002805473ffffffffffffffffffffffffffffffffffffffff1916600160a060020a0392909216919091179055565b60006103156107d8565b6000806103206107ea565b600086815260046020526040908190209060c090519081016040529081600082015460001916600019168152602001600182018054600181600116156101000203166002900480601f0160208091040260200160405190810160405280929190818152602001828054600181600116156101000203166002900480156103e75780601f106103bc576101008083540402835291602001916103e7565b820191906000526020600020905b8154815290600101906020018083116103ca57829003601f168201915b5050509183525050600282015460209091019060ff16600481111561040857fe5b600481111561041357fe5b81526003828101546020830152600483015460409092019160ff169081111561043857fe5b600381111561044357fe5b8152602001600582018054600181600116156101000203166002900480601f0160208091040260200160405190810160405280929190818152602001828054600181600116156101000203166002900480156104e05780601f106104b5576101008083540402835291602001916104e0565b820191906000526020600020905b8154815290600101906020018083116104c357829003601f168201915b5050505050815250509050806000015181602001518260400151600481111561050557fe5b8360800151600381111561051557fe5b9299919850965090945092505050565b600061052f6107ea565b60005433600160a060020a0390811691161461054a57600080fd5b600380546001810161055c8382610837565b50600091825260209091200185905560c0604051908101604090815286825260208201869052810184600481111561059057fe5b600481111561059b57fe5b815242602082015260400160018152602001602060405190810160409081526000808352919092528781526004602052209091508190815181556020820151816001019080516105ef929160200190610860565b50604082015160028201805460ff1916600183600481111561060d57fe5b021790555060608201518160030155608082015160048201805460ff1916600183600381111561063957fe5b021790555060a082015181600501908051610658929160200190610860565b50506001547fb8142d42f05d95abf0a6570799774d59276e49ea32a04d9a4ec316ea4a6886bc9150600160a060020a031686604051600160a060020a03909216825260208201526040908101905180910390a1506001949350505050565b600154600160a060020a031681565b600254600160a060020a031681565b60005433600160a060020a039081169116146106ef57600080fd5b600160a060020a038116151561070457600080fd5b600054600160a060020a0380831691167f8be0079c531659141344cd1fd0a4f28419497f9722a3daafe3b4186f6b6457e060405160405180910390a36000805473ffffffffffffffffffffffffffffffffffffffff1916600160a060020a0392909216919091179055565b6107776107d8565b60408051908101604052600b81527f48656c6c6f20576f726c64000000000000000000000000000000000000000000602082015290505b90565b60005433600160a060020a039081169116146107cc57600080fd5b33600160a060020a0316ff5b60206040519081016040526000815290565b60c060405190810160405260008152602081016108056107d8565b815260200160008152602001600081526020016000600381111561082557fe5b81526020016108326107d8565b905290565b81548183558181151161085b5760008381526020902061085b9181019083016108de565b505050565b828054600181600116156101000203166002900490600052602060002090601f016020900481019282601f106108a157805160ff19168380011785556108ce565b828001600101855582156108ce579182015b828111156108ce5782518255916020019190600101906108b3565b506108da9291506108de565b5090565b6107ae91905b808211156108da57600081556001016108e45600a165627a7a72305820b8181e9fc176cf03ec52b0c33a23191eefe1625fa6d69870b745b4a27e12f4f00029",
  "source": "pragma solidity ^0.4.18;\r\nimport \"zeppelin-solidity/contracts/ownership/Ownable.sol\";\r\n\r\ncontract Company is Ownable {\r\n    address public owner; //owner account address (20 bytes) the Gov \r\n    address public employee;\r\n\r\n    enum CompanyType {Undefined, SoleProprietorship, Corporation, Trust, Association} \r\n    enum RegistrationStatus {Undefined, Registered, Approved, Expired} \r\n\r\n    struct CompanyDetails{\r\n        bytes32 number;\r\n        string name;\r\n        CompanyType companyType;\r\n        uint dateRegistered; //unix time\r\n        RegistrationStatus registrationStatus;\r\n        string articlesOfIncorporation; // the actual record data should be part of IPFS\r\n        //TODO add employees\r\n    }\r\n\r\n    event Registered(address _owner, bytes32 number);\r\n\r\n    bytes32[] private companiesList; //list of company numbers so we can enumerate them\r\n    mapping(bytes32 => CompanyDetails) private companiesDetailsList; //access by company number key and get the other details \r\n\r\n    function Company() public payable{\r\n        owner = msg.sender; // msg.sender is contract caller (address of contract creator)\r\n    }\r\n\r\n    function test() public pure returns (string) {\r\n        return \"Hello World\";\r\n    }\r\n\r\n    function RegisterCompany(bytes32 _number, string _name, uint _companyType) public onlyOwner returns(bool success){\r\n        //register a new company \r\n        //TODO: check for duplicates  require(!isCompanyExists(_number));\r\n        companiesList.push(_number);\r\n        CompanyDetails memory companyDetails = CompanyDetails(_number, _name, CompanyType(_companyType), now, RegistrationStatus.Registered, \"\");\r\n        companiesDetailsList[_number] = companyDetails;\r\n        \r\n        emit Registered(owner, _number);\r\n\r\n        return true;\r\n    }\r\n\r\n    function lookupCompany(bytes32 _number) public constant returns(bytes32, string, uint, uint) {\r\n        CompanyDetails memory companyDetails = companiesDetailsList[_number];\r\n        return (companyDetails.number, companyDetails.name, uint(companyDetails.companyType), uint(companyDetails.registrationStatus));\r\n    }\r\n\r\n    function removeContract() public onlyOwner() {\r\n        selfdestruct(msg.sender);\r\n    }\r\n\r\n    //TODO SECTION\r\n    // function getArticlesOfIncorporation() public constant returns (string) {\r\n    //     //TODO: implement getArticlesOfIncorporation\r\n    //     return \"\";\r\n    // }\r\n\r\n    // function setArticlesOfIncorporation(string _recordString) public returns (bool) {\r\n    //     //TODO: implement setArticlesOfIncorporation\r\n    //     return true;\r\n    // }\r\n\r\n    function registerEmployee(address uportIdentityAddress) public onlyOwner()    {\r\n        employee = uportIdentityAddress;\r\n    }\r\n}",
  "sourcePath": "C:\\Users\\rwarner\\source\\repos\\gcbc\\contracts\\Company.sol",
  "compiler": {
    "name": "solc",
    "version": "0.4.21+commit.dfe3193c.Emscripten.clang"
  },
  "schemaVersion": "2.0.0",
  "updatedAt": "2018-04-22T00:32:07.200Z"
}